{
  "_format": "hh-sol-artifact-1",
  "contractName": "DEXPair",
  "sourceName": "contracts/core/DEXPair.sol",
  "abi": [
    {
      "inputs": [],
      "stateMutability": "nonpayable",
      "type": "constructor"
    },
    {
      "inputs": [
        {
          "internalType": "address",
          "name": "spender",
          "type": "address"
        },
        {
          "internalType": "uint256",
          "name": "allowance",
          "type": "uint256"
        },
        {
          "internalType": "uint256",
          "name": "needed",
          "type": "uint256"
        }
      ],
      "name": "ERC20InsufficientAllowance",
      "type": "error"
    },
    {
      "inputs": [
        {
          "internalType": "address",
          "name": "sender",
          "type": "address"
        },
        {
          "internalType": "uint256",
          "name": "balance",
          "type": "uint256"
        },
        {
          "internalType": "uint256",
          "name": "needed",
          "type": "uint256"
        }
      ],
      "name": "ERC20InsufficientBalance",
      "type": "error"
    },
    {
      "inputs": [
        {
          "internalType": "address",
          "name": "approver",
          "type": "address"
        }
      ],
      "name": "ERC20InvalidApprover",
      "type": "error"
    },
    {
      "inputs": [
        {
          "internalType": "address",
          "name": "receiver",
          "type": "address"
        }
      ],
      "name": "ERC20InvalidReceiver",
      "type": "error"
    },
    {
      "inputs": [
        {
          "internalType": "address",
          "name": "sender",
          "type": "address"
        }
      ],
      "name": "ERC20InvalidSender",
      "type": "error"
    },
    {
      "inputs": [
        {
          "internalType": "address",
          "name": "spender",
          "type": "address"
        }
      ],
      "name": "ERC20InvalidSpender",
      "type": "error"
    },
    {
      "inputs": [],
      "name": "ReentrancyGuardReentrantCall",
      "type": "error"
    },
    {
      "anonymous": false,
      "inputs": [
        {
          "indexed": true,
          "internalType": "address",
          "name": "owner",
          "type": "address"
        },
        {
          "indexed": true,
          "internalType": "address",
          "name": "spender",
          "type": "address"
        },
        {
          "indexed": false,
          "internalType": "uint256",
          "name": "value",
          "type": "uint256"
        }
      ],
      "name": "Approval",
      "type": "event"
    },
    {
      "anonymous": false,
      "inputs": [
        {
          "indexed": true,
          "internalType": "address",
          "name": "sender",
          "type": "address"
        },
        {
          "indexed": false,
          "internalType": "uint256",
          "name": "amount0",
          "type": "uint256"
        },
        {
          "indexed": false,
          "internalType": "uint256",
          "name": "amount1",
          "type": "uint256"
        },
        {
          "indexed": true,
          "internalType": "address",
          "name": "to",
          "type": "address"
        }
      ],
      "name": "Burn",
      "type": "event"
    },
    {
      "anonymous": false,
      "inputs": [
        {
          "indexed": true,
          "internalType": "address",
          "name": "sender",
          "type": "address"
        },
        {
          "indexed": false,
          "internalType": "uint256",
          "name": "amount0",
          "type": "uint256"
        },
        {
          "indexed": false,
          "internalType": "uint256",
          "name": "amount1",
          "type": "uint256"
        }
      ],
      "name": "Mint",
      "type": "event"
    },
    {
      "anonymous": false,
      "inputs": [
        {
          "indexed": true,
          "internalType": "address",
          "name": "sender",
          "type": "address"
        },
        {
          "indexed": false,
          "internalType": "uint256",
          "name": "amount0In",
          "type": "uint256"
        },
        {
          "indexed": false,
          "internalType": "uint256",
          "name": "amount1In",
          "type": "uint256"
        },
        {
          "indexed": false,
          "internalType": "uint256",
          "name": "amount0Out",
          "type": "uint256"
        },
        {
          "indexed": false,
          "internalType": "uint256",
          "name": "amount1Out",
          "type": "uint256"
        },
        {
          "indexed": true,
          "internalType": "address",
          "name": "to",
          "type": "address"
        }
      ],
      "name": "Swap",
      "type": "event"
    },
    {
      "anonymous": false,
      "inputs": [
        {
          "indexed": false,
          "internalType": "uint112",
          "name": "reserve0",
          "type": "uint112"
        },
        {
          "indexed": false,
          "internalType": "uint112",
          "name": "reserve1",
          "type": "uint112"
        }
      ],
      "name": "Sync",
      "type": "event"
    },
    {
      "anonymous": false,
      "inputs": [
        {
          "indexed": true,
          "internalType": "address",
          "name": "from",
          "type": "address"
        },
        {
          "indexed": true,
          "internalType": "address",
          "name": "to",
          "type": "address"
        },
        {
          "indexed": false,
          "internalType": "uint256",
          "name": "value",
          "type": "uint256"
        }
      ],
      "name": "Transfer",
      "type": "event"
    },
    {
      "inputs": [],
      "name": "MINIMUM_LIQUIDITY",
      "outputs": [
        {
          "internalType": "uint256",
          "name": "",
          "type": "uint256"
        }
      ],
      "stateMutability": "view",
      "type": "function"
    },
    {
      "inputs": [
        {
          "internalType": "address",
          "name": "owner",
          "type": "address"
        },
        {
          "internalType": "address",
          "name": "spender",
          "type": "address"
        }
      ],
      "name": "allowance",
      "outputs": [
        {
          "internalType": "uint256",
          "name": "",
          "type": "uint256"
        }
      ],
      "stateMutability": "view",
      "type": "function"
    },
    {
      "inputs": [
        {
          "internalType": "address",
          "name": "spender",
          "type": "address"
        },
        {
          "internalType": "uint256",
          "name": "value",
          "type": "uint256"
        }
      ],
      "name": "approve",
      "outputs": [
        {
          "internalType": "bool",
          "name": "",
          "type": "bool"
        }
      ],
      "stateMutability": "nonpayable",
      "type": "function"
    },
    {
      "inputs": [
        {
          "internalType": "address",
          "name": "account",
          "type": "address"
        }
      ],
      "name": "balanceOf",
      "outputs": [
        {
          "internalType": "uint256",
          "name": "",
          "type": "uint256"
        }
      ],
      "stateMutability": "view",
      "type": "function"
    },
    {
      "inputs": [
        {
          "internalType": "address",
          "name": "to",
          "type": "address"
        }
      ],
      "name": "burn",
      "outputs": [
        {
          "internalType": "uint256",
          "name": "amount0",
          "type": "uint256"
        },
        {
          "internalType": "uint256",
          "name": "amount1",
          "type": "uint256"
        }
      ],
      "stateMutability": "nonpayable",
      "type": "function"
    },
    {
      "inputs": [],
      "name": "decimals",
      "outputs": [
        {
          "internalType": "uint8",
          "name": "",
          "type": "uint8"
        }
      ],
      "stateMutability": "view",
      "type": "function"
    },
    {
      "inputs": [],
      "name": "factory",
      "outputs": [
        {
          "internalType": "address",
          "name": "",
          "type": "address"
        }
      ],
      "stateMutability": "view",
      "type": "function"
    },
    {
      "inputs": [],
      "name": "getReserves",
      "outputs": [
        {
          "internalType": "uint112",
          "name": "_reserve0",
          "type": "uint112"
        },
        {
          "internalType": "uint112",
          "name": "_reserve1",
          "type": "uint112"
        },
        {
          "internalType": "uint32",
          "name": "_blockTimestampLast",
          "type": "uint32"
        }
      ],
      "stateMutability": "view",
      "type": "function"
    },
    {
      "inputs": [
        {
          "internalType": "address",
          "name": "_token0",
          "type": "address"
        },
        {
          "internalType": "address",
          "name": "_token1",
          "type": "address"
        }
      ],
      "name": "initialize",
      "outputs": [],
      "stateMutability": "nonpayable",
      "type": "function"
    },
    {
      "inputs": [],
      "name": "kLast",
      "outputs": [
        {
          "internalType": "uint256",
          "name": "",
          "type": "uint256"
        }
      ],
      "stateMutability": "view",
      "type": "function"
    },
    {
      "inputs": [
        {
          "internalType": "address",
          "name": "to",
          "type": "address"
        }
      ],
      "name": "mint",
      "outputs": [
        {
          "internalType": "uint256",
          "name": "liquidity",
          "type": "uint256"
        }
      ],
      "stateMutability": "nonpayable",
      "type": "function"
    },
    {
      "inputs": [],
      "name": "name",
      "outputs": [
        {
          "internalType": "string",
          "name": "",
          "type": "string"
        }
      ],
      "stateMutability": "view",
      "type": "function"
    },
    {
      "inputs": [],
      "name": "price0CumulativeLast",
      "outputs": [
        {
          "internalType": "uint256",
          "name": "",
          "type": "uint256"
        }
      ],
      "stateMutability": "view",
      "type": "function"
    },
    {
      "inputs": [],
      "name": "price1CumulativeLast",
      "outputs": [
        {
          "internalType": "uint256",
          "name": "",
          "type": "uint256"
        }
      ],
      "stateMutability": "view",
      "type": "function"
    },
    {
      "inputs": [
        {
          "internalType": "address",
          "name": "to",
          "type": "address"
        }
      ],
      "name": "skim",
      "outputs": [],
      "stateMutability": "nonpayable",
      "type": "function"
    },
    {
      "inputs": [
        {
          "internalType": "uint256",
          "name": "amount0Out",
          "type": "uint256"
        },
        {
          "internalType": "uint256",
          "name": "amount1Out",
          "type": "uint256"
        },
        {
          "internalType": "address",
          "name": "to",
          "type": "address"
        },
        {
          "internalType": "bytes",
          "name": "data",
          "type": "bytes"
        }
      ],
      "name": "swap",
      "outputs": [],
      "stateMutability": "nonpayable",
      "type": "function"
    },
    {
      "inputs": [],
      "name": "symbol",
      "outputs": [
        {
          "internalType": "string",
          "name": "",
          "type": "string"
        }
      ],
      "stateMutability": "view",
      "type": "function"
    },
    {
      "inputs": [],
      "name": "sync",
      "outputs": [],
      "stateMutability": "nonpayable",
      "type": "function"
    },
    {
      "inputs": [],
      "name": "token0",
      "outputs": [
        {
          "internalType": "address",
          "name": "",
          "type": "address"
        }
      ],
      "stateMutability": "view",
      "type": "function"
    },
    {
      "inputs": [],
      "name": "token1",
      "outputs": [
        {
          "internalType": "address",
          "name": "",
          "type": "address"
        }
      ],
      "stateMutability": "view",
      "type": "function"
    },
    {
      "inputs": [],
      "name": "totalSupply",
      "outputs": [
        {
          "internalType": "uint256",
          "name": "",
          "type": "uint256"
        }
      ],
      "stateMutability": "view",
      "type": "function"
    },
    {
      "inputs": [
        {
          "internalType": "address",
          "name": "to",
          "type": "address"
        },
        {
          "internalType": "uint256",
          "name": "value",
          "type": "uint256"
        }
      ],
      "name": "transfer",
      "outputs": [
        {
          "internalType": "bool",
          "name": "",
          "type": "bool"
        }
      ],
      "stateMutability": "nonpayable",
      "type": "function"
    },
    {
      "inputs": [
        {
          "internalType": "address",
          "name": "from",
          "type": "address"
        },
        {
          "internalType": "address",
          "name": "to",
          "type": "address"
        },
        {
          "internalType": "uint256",
          "name": "value",
          "type": "uint256"
        }
      ],
      "name": "transferFrom",
      "outputs": [
        {
          "internalType": "bool",
          "name": "",
          "type": "bool"
        }
      ],
      "stateMutability": "nonpayable",
      "type": "function"
    }
  ],
  "bytecode": "0x6080346200033d576001600160401b0390604090808201838111828210176200023d578252600c81526020926b2222ac102628102a37b5b2b760a11b84830152825190838201828110828211176200023d578452600682526504445582d4c560d41b8583015282518181116200023d576003908154906001958683811c9316801562000332575b898410146200031c578190601f93848111620002c6575b5089908483116001146200025f5760009262000253575b505060001982851b1c191690861b1782555b83519283116200023d576004938454978689811c9916801562000232575b818a10146200021d578883869798999a11620001c1575b508092851160011462000153575060009362000147575b505082851b92600019911b1c19161790555b600555600680546001600160a01b03191633179055516127bd9081620003438239f35b01519150388062000112565b929190879550601f1985168760005284600020946000905b828210620001a757505085116200018c575b50505050811b01905562000124565b01519060f884600019921b161c19169055388080806200017d565b8484015187558a989096019593840193908101906200016b565b90919293945086600052816000208480880160051c82019284891062000213575b918a91899897969594930160051c01915b82811062000203575050620000fb565b600081558897508a9101620001f3565b92508192620001e2565b602286634e487b7160e01b6000525260246000fd5b98607f1698620000e4565b634e487b7160e01b600052604160045260246000fd5b015190503880620000b4565b90889350601f19831691866000528b6000209260005b8d828210620002af575050841162000296575b505050811b018255620000c6565b015160001983871b60f8161c1916905538808062000288565b8385015186558c9790950194938401930162000275565b90915084600052896000208480850160051c8201928c861062000312575b918a91869594930160051c01915b828110620003025750506200009d565b600081558594508a9101620002f2565b92508192620002e4565b634e487b7160e01b600052602260045260246000fd5b92607f169262000086565b600080fdfe6080604052600436101561001257600080fd5b6000803560e01c8063022c0d9f1461165757806306fdde031461157e5780630902f1ac146114f9578063095ea7b3146114475780630dfe1681146113f557806318160ddd146113b957806323b872dd14611236578063313ce567146111fc578063485cc955146111035780635909c0d5146110c75780635a3d54931461108b5780636a62784214610cc757806370a0823114610c655780637464fc3d14610c2957806389afcb441461071357806395d89b41146105bc578063a9059cbb1461056c578063ba9a7a5614610531578063bc25cf77146103ab578063c45a015514610359578063d21220a714610307578063dd62ed3e1461028c5763fff6cae91461011a57600080fd5b3461028957807ffffffffffffffffffffffffffffffffffffffffffffffffffffffffffffffffc360112610289576101506121be565b73ffffffffffffffffffffffffffffffffffffffff80600754169060405190817f70a08231000000000000000000000000000000000000000000000000000000009384825230600483015281602460209586935afa91821561027e578391869361024d575b50600854169360246040518096819382523060048301525afa91821561024257849261020b575b506102039250600954916dffffffffffffffffffffffffffff808460701c169316916121f9565b600160055580f35b90915082813d831161023b575b6102228183611f3c565b8101031261023657610203915190386101dc565b600080fd5b503d610218565b6040513d86823e3d90fd5b8281939294503d8311610277575b6102658183611f3c565b810103126102365782905191386101b5565b503d61025b565b6040513d87823e3d90fd5b80fd5b50346102895760407ffffffffffffffffffffffffffffffffffffffffffffffffffffffffffffffffc360112610289576102c4611e90565b60406102ce611eb3565b9273ffffffffffffffffffffffffffffffffffffffff809316815260016020522091166000526020526020604060002054604051908152f35b503461028957807ffffffffffffffffffffffffffffffffffffffffffffffffffffffffffffffffc36011261028957602073ffffffffffffffffffffffffffffffffffffffff60085416604051908152f35b503461028957807ffffffffffffffffffffffffffffffffffffffffffffffffffffffffffffffffc36011261028957602073ffffffffffffffffffffffffffffffffffffffff60065416604051908152f35b5034610289576020807ffffffffffffffffffffffffffffffffffffffffffffffffffffffffffffffffc36011261052d576103e4611e90565b906103ed6121be565b73ffffffffffffffffffffffffffffffffffffffff918260075416926008541691604051937f70a0823100000000000000000000000000000000000000000000000000000000908186523060048701528286602481845afa9586156105225787966104f1575b5061047d90846104776dffffffffffffffffffffffffffff988960095416906120fa565b91612522565b6040519081523060048201528181602481875afa9182156104e65786926104b6575b5050610477906102039460095460701c16906120fa565b90809250813d83116104df575b6104cd8183611f3c565b8101031261023657518361047761049f565b503d6104c3565b6040513d88823e3d90fd5b9095508281813d831161051b575b6105098183611f3c565b8101031261023657519461047d610453565b503d6104ff565b6040513d89823e3d90fd5b5080fd5b503461028957807ffffffffffffffffffffffffffffffffffffffffffffffffffffffffffffffffc3601126102895760206040516103e88152f35b50346102895760407ffffffffffffffffffffffffffffffffffffffffffffffffffffffffffffffffc360112610289576105b16105a7611e90565b6024359033611fac565b602060405160018152f35b503461028957807ffffffffffffffffffffffffffffffffffffffffffffffffffffffffffffffffc360112610289576040518160045490600182811c91818416938415610709575b60209485851081146106dc5784875290811561069c5750600114610643575b61063f8561063381890382611f3c565b60405191829182611ed6565b0390f35b929450600483527f8a35acfbc15ff81a39ae7d344fd709f28e8600b4aa8c65c6b64bfe7fe36bd19b5b828410610689575050508161063f93610633928201019338610623565b805485850187015292850192810161066c565b7fffffffffffffffffffffffffffffffffffffffffffffffffffffffffffffff001686860152505050151560051b82010191506106338161063f38610623565b6024837f4e487b710000000000000000000000000000000000000000000000000000000081526022600452fd5b92607f1692610604565b50346102895760207ffffffffffffffffffffffffffffffffffffffffffffffffffffffffffffffffc3601126102895761074b611e90565b6107536121be565b6107796009546dffffffffffffffffffffffffffff91828216928260701c169160e01c90565b5092909173ffffffffffffffffffffffffffffffffffffffff600754169173ffffffffffffffffffffffffffffffffffffffff6008541694604051917f70a08231000000000000000000000000000000000000000000000000000000008352306004840152602083602481885afa928315610c1c578193610be8575b50604051967f70a08231000000000000000000000000000000000000000000000000000000008852306004890152602088602481845afa958615610bdd578798839897610ba6575b503083528260205261087961086d61086d6108726108608860408920549c6123c0565b986002549384918d612107565b61211a565b9a8a612107565b9688151580610b9d575b15610b19573015610ae857306000526000602052604060002054818110610aa757916000826020936024969530845283865203604083205580600254036002556040519081527fddf252ad1be2c89b69c2b068fc378daa952ba7f163c4a11628f55a4df523b3ef843092a36108f98a8983612522565b610904898985612522565b604051938480927f70a082310000000000000000000000000000000000000000000000000000000082523060048301525afa918215610a9c578392610a67575b506020602491604051928380927f70a082310000000000000000000000000000000000000000000000000000000082523060048301525afa928315610a5b5792610a20575b509661099892916040986121f9565b6109f6575b73ffffffffffffffffffffffffffffffffffffffff84519184835283602084015216907fdccd412f0b1252819cb1fd330b93224ca42612892bb3f4f789976e6d81936496853392a3600160055582519182526020820152f35b610a186009546dffffffffffffffffffffffffffff808260701c169116612107565b600c5561099d565b929150966020833d602011610a53575b81610a3d60209383611f3c565b8101031261023657915191969091906040610989565b3d9150610a30565b604051903d90823e3d90fd5b9091506020813d602011610a94575b81610a8360209383611f3c565b810103126102365751906020610944565b3d9150610a76565b6040513d85823e3d90fd5b6040517fe450d38c00000000000000000000000000000000000000000000000000000000815230600482015260248101919091526044810191909152606490fd5b602484604051907f96c6fd1e0000000000000000000000000000000000000000000000000000000082526004820152fd5b60846040517f08c379a000000000000000000000000000000000000000000000000000000000815260206004820152602660248201527f444558506169723a20494e53554646494349454e545f4c49515549444954595f60448201527f4255524e454400000000000000000000000000000000000000000000000000006064820152fd5b50871515610883565b965096506020863d602011610bd5575b81610bc360209383611f3c565b8101031261023657879551963861083d565b3d9150610bb6565b6040513d84823e3d90fd5b9092506020813d602011610c14575b81610c0460209383611f3c565b81010312610236575191386107f5565b3d9150610bf7565b50604051903d90823e3d90fd5b503461028957807ffffffffffffffffffffffffffffffffffffffffffffffffffffffffffffffffc360112610289576020600c54604051908152f35b50346102895760207ffffffffffffffffffffffffffffffffffffffffffffffffffffffffffffffffc36011261028957604060209173ffffffffffffffffffffffffffffffffffffffff610cb7611e90565b1681528083522054604051908152f35b503461028957602090817ffffffffffffffffffffffffffffffffffffffffffffffffffffffffffffffffc36011261028957610d01611e90565b610d096121be565b610d2f6009546dffffffffffffffffffffffffffff91828216928260701c169160e01c90565b50929073ffffffffffffffffffffffffffffffffffffffff928360075416946040519487866024817f70a08231000000000000000000000000000000000000000000000000000000009a8b82523060048301525afa95861561027e57908891869761105a575b50600854169660246040518099819382523060048301525afa95861561024257849661102b575b506dffffffffffffffffffffffffffff9283811696610ddb88886120fa565b9685841694610dea86846120fa565b97610df586866123c0565b966002549b8c15600014610ff2575050610e17610e128a8c612107565b6126a0565b907ffffffffffffffffffffffffffffffffffffffffffffffffffffffffffffffc188201918211610fc55750996103e890818101809111610f965760025560007fddf252ad1be2c89b69c2b068fc378daa952ba7f163c4a11628f55a4df523b3ef8d61dead9384845283825260408420818154019055604051908152a35b8915610f125790610eac8a610eb196959493612153565b6121f9565b610ef4575b50604051918252838201527f4c209b5fc8ad50758f13e2e1088ba56a560dff690a1c6fef26394f4c03821c4f60403392a26001600555604051908152f35b610f099060095490808260701c169116612107565b600c5538610eb6565b60848b604051907f08c379a00000000000000000000000000000000000000000000000000000000082526004820152602660248201527f444558506169723a20494e53554646494349454e545f4c49515549444954595f60448201527f4d494e54454400000000000000000000000000000000000000000000000000006064820152fd5b7f4e487b7100000000000000000000000000000000000000000000000000000000600052601160045260246000fd5b807f4e487b7100000000000000000000000000000000000000000000000000000000602492526011600452fd5b9061086d61100b611012938f969f8f9061086d91612107565b948c612107565b90508082101561102457505b98610e95565b905061101e565b9095508681813d8311611053575b6110438183611f3c565b8101031261023657519438610dbc565b503d611039565b8281939298503d8311611084575b6110728183611f3c565b81010312610236578790519538610d95565b503d611068565b503461028957807ffffffffffffffffffffffffffffffffffffffffffffffffffffffffffffffffc360112610289576020600b54604051908152f35b503461028957807ffffffffffffffffffffffffffffffffffffffffffffffffffffffffffffffffc360112610289576020600a54604051908152f35b50346102895760407ffffffffffffffffffffffffffffffffffffffffffffffffffffffffffffffffc3601126102895761113b611e90565b611143611eb3565b73ffffffffffffffffffffffffffffffffffffffff908160065416330361119e57817fffffffffffffffffffffffff000000000000000000000000000000000000000093168360075416176007551690600854161760085580f35b60646040517f08c379a000000000000000000000000000000000000000000000000000000000815260206004820152601260248201527f444558506169723a20464f5242494444454e00000000000000000000000000006044820152fd5b503461028957807ffffffffffffffffffffffffffffffffffffffffffffffffffffffffffffffffc36011261028957602060405160128152f35b50346102895760607ffffffffffffffffffffffffffffffffffffffffffffffffffffffffffffffffc3601126102895761126e611e90565b611276611eb3565b60443591604073ffffffffffffffffffffffffffffffffffffffff82169485815260016020522033600052602052604060002054937fffffffffffffffffffffffffffffffffffffffffffffffffffffffffffffffff85106112de575b506105b19350611fac565b83851061137a578015611349573315611318576105b1948491600052600160205260406000203360005260205203604060002055386112d3565b60246040517f94280d6200000000000000000000000000000000000000000000000000000000815260006004820152fd5b60246040517fe602df0500000000000000000000000000000000000000000000000000000000815260006004820152fd5b6040517ffb8f41b20000000000000000000000000000000000000000000000000000000081523360048201526024810186905260448101859052606490fd5b503461028957807ffffffffffffffffffffffffffffffffffffffffffffffffffffffffffffffffc360112610289576020600254604051908152f35b503461028957807ffffffffffffffffffffffffffffffffffffffffffffffffffffffffffffffffc36011261028957602073ffffffffffffffffffffffffffffffffffffffff60075416604051908152f35b50346102895760407ffffffffffffffffffffffffffffffffffffffffffffffffffffffffffffffffc3601126102895761147f611e90565b6024359033156113495773ffffffffffffffffffffffffffffffffffffffff1690811561131857336000526001602052604060002082600052602052806040600020556040519081527f8c5be1e5ebec7d5bd14f71427d1e84f3dd0314c0f7b2291e5b200ac8c7c3b92560203392a3602060405160018152f35b503461028957807ffffffffffffffffffffffffffffffffffffffffffffffffffffffffffffffffc36011261028957606063ffffffff6115556009546dffffffffffffffffffffffffffff91828216928260701c169160e01c90565b909291604051936dffffffffffffffffffffffffffff8092168552166020840152166040820152f35b503461028957807ffffffffffffffffffffffffffffffffffffffffffffffffffffffffffffffffc360112610289576040518160035490600182811c9181841693841561164d575b60209485851081146106dc5784875290811561069c57506001146115f45761063f8561063381890382611f3c565b929450600383527fc2575a0e9e593c00f959f8c92f12db2869c3395a3b0502d05e2516446f71f85b5b82841061163a575050508161063f93610633928201019338610623565b805485850187015292850192810161161d565b92607f16926115c6565b50346102895760807ffffffffffffffffffffffffffffffffffffffffffffffffffffffffffffffffc3601126102895773ffffffffffffffffffffffffffffffffffffffff80604435166044350361052d5767ffffffffffffffff6064351161052d5736602360643501121561052d5767ffffffffffffffff606435600401351161052d573660246064356004013560643501011161052d576116f86121be565b600435159081158092611e85575b15611e01576117316009546dffffffffffffffffffffffffffff91828216928260701c169160e01c90565b506dffffffffffffffffffffffffffff829492166004351080611de6575b15611d88578260075416836008541692818560443516141580611d7a575b15611d1c57611d08575b602435611cf4575b60643560040135611bdd575b906020602492604051938480927f70a082310000000000000000000000000000000000000000000000000000000082523060048301525afa9182156104e6578692611ba6575b506020602493604051948580927f70a082310000000000000000000000000000000000000000000000000000000082523060048301525afa9283156104e6578693611b72575b506118346004356dffffffffffffffffffffffffffff87166120fa565b821115611b6b5761186061185a6004356dffffffffffffffffffffffffffff88166120fa565b836120fa565b945b61187e6024356dffffffffffffffffffffffffffff84166120fa565b841115611b64576118aa6118a46024356dffffffffffffffffffffffffffff85166120fa565b856120fa565b935b8615158715611b5b575b15611ad757836103e88102046103e81484151715611aaa576003870287810460031488151715611a7d576118ee906103e886026120fa565b6103e882028281046103e81483151715611a2357600387029087820460031488151715611a50576119299291611923916120fa565b90612107565b6119536dffffffffffffffffffffffffffff85166dffffffffffffffffffffffffffff8516612107565b90620f424091828102928184041490151715611a2357106119c557611977936121f9565b60405192835260208301526004356040830152602435606083015260443516907fd78ad95fa46c994b6551d0da85fc275fe613ce37657fb8d5e3d130840159d82260803392a3600160055580f35b60646040517f08c379a000000000000000000000000000000000000000000000000000000000815260206004820152600a60248201527f444558506169723a204b000000000000000000000000000000000000000000006044820152fd5b60248a7f4e487b710000000000000000000000000000000000000000000000000000000081526011600452fd5b60248b7f4e487b710000000000000000000000000000000000000000000000000000000081526011600452fd5b6024897f4e487b710000000000000000000000000000000000000000000000000000000081526011600452fd5b6024887f4e487b710000000000000000000000000000000000000000000000000000000081526011600452fd5b60846040517f08c379a000000000000000000000000000000000000000000000000000000000815260206004820152602260248201527f444558506169723a20494e53554646494349454e545f494e5055545f414d4f5560448201527f4e540000000000000000000000000000000000000000000000000000000000006064820152fd5b508415156118b6565b86936118ac565b8594611862565b9092506020813d602011611b9e575b81611b8e60209383611f3c565b8101031261023657519138611817565b3d9150611b81565b9291506020833d602011611bd5575b81611bc260209383611f3c565b81010312610236579151909160206117d1565b3d9150611bb5565b83604435163b15611cf0576040517f3a151d2d00000000000000000000000000000000000000000000000000000000815233600482015260043560248201526024356044820152608060648201526064356004013560848201526064356004013560246064350160a48301378660a46064356004013583010152868160a4817fffffffffffffffffffffffffffffffffffffffffffffffffffffffffffffffe0601f60643560040135011681010301818389604435165af1801561052257611ca6575b5061178b565b67ffffffffffffffff8197929711611cc357604052946020611ca0565b6024827f4e487b710000000000000000000000000000000000000000000000000000000081526041600452fd5b8580fd5b611d0360243560443585612522565b61177f565b611d1760043560443583612522565b611777565b60646040517f08c379a000000000000000000000000000000000000000000000000000000000815260206004820152601360248201527f444558506169723a20494e56414c49445f544f000000000000000000000000006044820152fd5b50838560443516141561176d565b60646040517f08c379a000000000000000000000000000000000000000000000000000000000815260206004820152601f60248201527f444558506169723a20494e53554646494349454e545f4c4951554944495459006044820152fd5b506dffffffffffffffffffffffffffff81166024351061174f565b60846040517f08c379a000000000000000000000000000000000000000000000000000000000815260206004820152602360248201527f444558506169723a20494e53554646494349454e545f4f55545055545f414d4f60448201527f554e5400000000000000000000000000000000000000000000000000000000006064820152fd5b506024351515611706565b6004359073ffffffffffffffffffffffffffffffffffffffff8216820361023657565b6024359073ffffffffffffffffffffffffffffffffffffffff8216820361023657565b60208082528251818301819052939260005b858110611f28575050507fffffffffffffffffffffffffffffffffffffffffffffffffffffffffffffffe0601f8460006040809697860101520116010190565b818101830151848201604001528201611ee8565b90601f7fffffffffffffffffffffffffffffffffffffffffffffffffffffffffffffffe0910116810190811067ffffffffffffffff821117611f7d57604052565b7f4e487b7100000000000000000000000000000000000000000000000000000000600052604160045260246000fd5b9173ffffffffffffffffffffffffffffffffffffffff8084169283156120bc571692831561208b5760009083825281602052604082205490838210612033575091604082827fddf252ad1be2c89b69c2b068fc378daa952ba7f163c4a11628f55a4df523b3ef958760209652828652038282205586815220818154019055604051908152a3565b6040517fe450d38c00000000000000000000000000000000000000000000000000000000815273ffffffffffffffffffffffffffffffffffffffff919091166004820152602481019190915260448101839052606490fd5b60246040517fec442f0500000000000000000000000000000000000000000000000000000000815260006004820152fd5b60246040517f96c6fd1e00000000000000000000000000000000000000000000000000000000815260006004820152fd5b91908201809211610f9657565b91908203918211610f9657565b81810292918115918404141715610f9657565b8115612124570490565b7f4e487b7100000000000000000000000000000000000000000000000000000000600052601260045260246000fd5b73ffffffffffffffffffffffffffffffffffffffff1690811561208b577fddf252ad1be2c89b69c2b068fc378daa952ba7f163c4a11628f55a4df523b3ef6020826121a26000946002546120ed565b60025584845283825260408420818154019055604051908152a3565b6002600554146121cf576002600555565b60046040517f3ee5aeb5000000000000000000000000000000000000000000000000000000008152fd5b916dffffffffffffffffffffffffffff9081841115806123b6575b15612358576009549363ffffffff9460e01c8542160391858311610f96577f1c411e9a96e071241c2f21f7726b17ae89e3cab4c78be50e062b03a9fffbbad1966040968594168015158061234d575b80612342575b6122d3575b5050501691827bffffffffffffffffffffffffffff00000000000000000000000000007fffffffff000000000000000000000000000000000000000000000000000000004260e01b169260701b16171780600955835192835260701c166020820152a1565b6123379261231961232f936123147bffffffffffffffffffffffffffffffffffffffffffffffffffffffff9361232761231f878761231985612314896126fa565b61274d565b16612107565b600a546120ed565b600a556126fa565b600b546120ed565b600b5538808061226e565b508482161515612269565b508483161515612263565b60646040517f08c379a000000000000000000000000000000000000000000000000000000000815260206004820152601160248201527f444558506169723a204f564552464c4f570000000000000000000000000000006044820152fd5b5081831115612214565b60049092919273ffffffffffffffffffffffffffffffffffffffff60208160065416604051948580927f017e7e580000000000000000000000000000000000000000000000000000000082525afa928315612516576000936124d8575b508216151593600c5491856000146124c7578261243b575b50505050565b610e1261245f91612465936dffffffffffffffffffffffffffff8091169116612107565b916126a0565b90818111612474575b80612435565b61248460025461192384846120fa565b90600581029080820460051490151715610f96576124ab926124a5916120ed565b9061211a565b806124b7575b8061246e565b6124c091612153565b38806124b1565b505090506124d157565b6000600c55565b6020939193813d821161250e575b816124f360209383611f3c565b8101031261052d57519083821682036102895750913861241d565b3d91506124e6565b6040513d6000823e3d90fd5b6040519160209373ffffffffffffffffffffffffffffffffffffffff858501927fa9059cbb000000000000000000000000000000000000000000000000000000008452166024850152604484015260448352608083019267ffffffffffffffff9381811085821117611f7d57604052600092839283809351925af1913d15612698573d908111611cc357604051906125e1857fffffffffffffffffffffffffffffffffffffffffffffffffffffffffffffffe0601f8401160183611f3c565b81523d828583013e5b82612658575b5050156125fa5750565b606490604051907f08c379a00000000000000000000000000000000000000000000000000000000082526004820152601860248201527f444558506169723a205452414e534645525f4641494c454400000000000000006044820152fd5b8051925082159190848315612674575b505050905038806125f0565b91938180945001031261052d57820151908115158203610289575080388084612668565b5060606125ea565b90600060038311156126ed57508160019080821c828101809111610f965791905b8483106126cd57505050565b909193506126e4846126df818461211a565b6120ed565b821c91906126c1565b916126f457565b60019150565b7bffffffffffffffffffffffffffff00000000000000000000000000006dffffffffffffffffffffffffffff82169160701b16908082046e0100000000000000000000000000001490151715610f965790565b906dffffffffffffffffffffffffffff16908115612124577bffffffffffffffffffffffffffffffffffffffffffffffffffffffff16049056fea264697066735822122062922413e84fda6cd3ee8133e7868a9f5a58d164017fb3e793e4cb60985a994f64736f6c63430008140033",
  "linkReferences": {},
  "deployedLinkReferences": {}
}