{
  "_format": "hh-sol-artifact-1",
  "contractName": "MasterChef",
  "sourceName": "contracts/farming/MasterChef.sol",
  "abi": [
    {
      "inputs": [
        {
          "internalType": "contract DEXToken",
          "name": "_dexToken",
          "type": "address"
        },
        {
          "internalType": "uint256",
          "name": "_rewardPerBlock",
          "type": "uint256"
        },
        {
          "internalType": "uint256",
          "name": "_startBlock",
          "type": "uint256"
        }
      ],
      "stateMutability": "nonpayable",
      "type": "constructor"
    },
    {
      "inputs": [
        {
          "internalType": "address",
          "name": "owner",
          "type": "address"
        }
      ],
      "name": "OwnableInvalidOwner",
      "type": "error"
    },
    {
      "inputs": [
        {
          "internalType": "address",
          "name": "account",
          "type": "address"
        }
      ],
      "name": "OwnableUnauthorizedAccount",
      "type": "error"
    },
    {
      "inputs": [],
      "name": "ReentrancyGuardReentrantCall",
      "type": "error"
    },
    {
      "inputs": [
        {
          "internalType": "address",
          "name": "token",
          "type": "address"
        }
      ],
      "name": "SafeERC20FailedOperation",
      "type": "error"
    },
    {
      "anonymous": false,
      "inputs": [
        {
          "indexed": true,
          "internalType": "address",
          "name": "user",
          "type": "address"
        },
        {
          "indexed": true,
          "internalType": "uint256",
          "name": "pid",
          "type": "uint256"
        },
        {
          "indexed": false,
          "internalType": "uint256",
          "name": "amount",
          "type": "uint256"
        }
      ],
      "name": "Deposit",
      "type": "event"
    },
    {
      "anonymous": false,
      "inputs": [
        {
          "indexed": true,
          "internalType": "address",
          "name": "user",
          "type": "address"
        },
        {
          "indexed": true,
          "internalType": "uint256",
          "name": "pid",
          "type": "uint256"
        },
        {
          "indexed": false,
          "internalType": "uint256",
          "name": "amount",
          "type": "uint256"
        }
      ],
      "name": "EmergencyWithdraw",
      "type": "event"
    },
    {
      "anonymous": false,
      "inputs": [
        {
          "indexed": true,
          "internalType": "address",
          "name": "previousOwner",
          "type": "address"
        },
        {
          "indexed": true,
          "internalType": "address",
          "name": "newOwner",
          "type": "address"
        }
      ],
      "name": "OwnershipTransferred",
      "type": "event"
    },
    {
      "anonymous": false,
      "inputs": [
        {
          "indexed": true,
          "internalType": "uint256",
          "name": "pid",
          "type": "uint256"
        },
        {
          "indexed": true,
          "internalType": "address",
          "name": "lpToken",
          "type": "address"
        },
        {
          "indexed": false,
          "internalType": "uint256",
          "name": "allocPoint",
          "type": "uint256"
        }
      ],
      "name": "PoolAdded",
      "type": "event"
    },
    {
      "anonymous": false,
      "inputs": [
        {
          "indexed": true,
          "internalType": "uint256",
          "name": "pid",
          "type": "uint256"
        },
        {
          "indexed": false,
          "internalType": "uint256",
          "name": "allocPoint",
          "type": "uint256"
        }
      ],
      "name": "PoolUpdated",
      "type": "event"
    },
    {
      "anonymous": false,
      "inputs": [
        {
          "indexed": true,
          "internalType": "address",
          "name": "user",
          "type": "address"
        },
        {
          "indexed": false,
          "internalType": "uint256",
          "name": "amount",
          "type": "uint256"
        }
      ],
      "name": "RewardPaid",
      "type": "event"
    },
    {
      "anonymous": false,
      "inputs": [
        {
          "indexed": false,
          "internalType": "uint256",
          "name": "oldValue",
          "type": "uint256"
        },
        {
          "indexed": false,
          "internalType": "uint256",
          "name": "newValue",
          "type": "uint256"
        }
      ],
      "name": "RewardPerBlockUpdated",
      "type": "event"
    },
    {
      "anonymous": false,
      "inputs": [
        {
          "indexed": true,
          "internalType": "address",
          "name": "user",
          "type": "address"
        },
        {
          "indexed": true,
          "internalType": "uint256",
          "name": "pid",
          "type": "uint256"
        },
        {
          "indexed": false,
          "internalType": "uint256",
          "name": "amount",
          "type": "uint256"
        }
      ],
      "name": "Withdraw",
      "type": "event"
    },
    {
      "inputs": [
        {
          "internalType": "uint256",
          "name": "_allocPoint",
          "type": "uint256"
        },
        {
          "internalType": "contract IERC20",
          "name": "_lpToken",
          "type": "address"
        },
        {
          "internalType": "bool",
          "name": "_withUpdate",
          "type": "bool"
        }
      ],
      "name": "add",
      "outputs": [],
      "stateMutability": "nonpayable",
      "type": "function"
    },
    {
      "inputs": [
        {
          "internalType": "uint256",
          "name": "_pid",
          "type": "uint256"
        },
        {
          "internalType": "uint256",
          "name": "_amount",
          "type": "uint256"
        }
      ],
      "name": "deposit",
      "outputs": [],
      "stateMutability": "nonpayable",
      "type": "function"
    },
    {
      "inputs": [],
      "name": "dexToken",
      "outputs": [
        {
          "internalType": "contract DEXToken",
          "name": "",
          "type": "address"
        }
      ],
      "stateMutability": "view",
      "type": "function"
    },
    {
      "inputs": [
        {
          "internalType": "uint256",
          "name": "_pid",
          "type": "uint256"
        }
      ],
      "name": "emergencyWithdraw",
      "outputs": [],
      "stateMutability": "nonpayable",
      "type": "function"
    },
    {
      "inputs": [],
      "name": "endBlock",
      "outputs": [
        {
          "internalType": "uint256",
          "name": "",
          "type": "uint256"
        }
      ],
      "stateMutability": "view",
      "type": "function"
    },
    {
      "inputs": [
        {
          "internalType": "uint256",
          "name": "_from",
          "type": "uint256"
        },
        {
          "internalType": "uint256",
          "name": "_to",
          "type": "uint256"
        }
      ],
      "name": "getMultiplier",
      "outputs": [
        {
          "internalType": "uint256",
          "name": "",
          "type": "uint256"
        }
      ],
      "stateMutability": "view",
      "type": "function"
    },
    {
      "inputs": [
        {
          "internalType": "uint256",
          "name": "_pid",
          "type": "uint256"
        }
      ],
      "name": "getPoolAPR",
      "outputs": [
        {
          "internalType": "uint256",
          "name": "",
          "type": "uint256"
        }
      ],
      "stateMutability": "view",
      "type": "function"
    },
    {
      "inputs": [],
      "name": "massUpdatePools",
      "outputs": [],
      "stateMutability": "nonpayable",
      "type": "function"
    },
    {
      "inputs": [],
      "name": "owner",
      "outputs": [
        {
          "internalType": "address",
          "name": "",
          "type": "address"
        }
      ],
      "stateMutability": "view",
      "type": "function"
    },
    {
      "inputs": [
        {
          "internalType": "uint256",
          "name": "_pid",
          "type": "uint256"
        },
        {
          "internalType": "address",
          "name": "_user",
          "type": "address"
        }
      ],
      "name": "pendingReward",
      "outputs": [
        {
          "internalType": "uint256",
          "name": "",
          "type": "uint256"
        }
      ],
      "stateMutability": "view",
      "type": "function"
    },
    {
      "inputs": [
        {
          "internalType": "uint256",
          "name": "",
          "type": "uint256"
        }
      ],
      "name": "poolInfo",
      "outputs": [
        {
          "internalType": "contract IERC20",
          "name": "lpToken",
          "type": "address"
        },
        {
          "internalType": "uint256",
          "name": "allocPoint",
          "type": "uint256"
        },
        {
          "internalType": "uint256",
          "name": "lastRewardBlock",
          "type": "uint256"
        },
        {
          "internalType": "uint256",
          "name": "accRewardPerShare",
          "type": "uint256"
        }
      ],
      "stateMutability": "view",
      "type": "function"
    },
    {
      "inputs": [],
      "name": "poolLength",
      "outputs": [
        {
          "internalType": "uint256",
          "name": "",
          "type": "uint256"
        }
      ],
      "stateMutability": "view",
      "type": "function"
    },
    {
      "inputs": [],
      "name": "renounceOwnership",
      "outputs": [],
      "stateMutability": "nonpayable",
      "type": "function"
    },
    {
      "inputs": [],
      "name": "rewardPerBlock",
      "outputs": [
        {
          "internalType": "uint256",
          "name": "",
          "type": "uint256"
        }
      ],
      "stateMutability": "view",
      "type": "function"
    },
    {
      "inputs": [
        {
          "internalType": "uint256",
          "name": "_pid",
          "type": "uint256"
        },
        {
          "internalType": "uint256",
          "name": "_allocPoint",
          "type": "uint256"
        },
        {
          "internalType": "bool",
          "name": "_withUpdate",
          "type": "bool"
        }
      ],
      "name": "set",
      "outputs": [],
      "stateMutability": "nonpayable",
      "type": "function"
    },
    {
      "inputs": [
        {
          "internalType": "uint256",
          "name": "_endBlock",
          "type": "uint256"
        }
      ],
      "name": "setEndBlock",
      "outputs": [],
      "stateMutability": "nonpayable",
      "type": "function"
    },
    {
      "inputs": [],
      "name": "startBlock",
      "outputs": [
        {
          "internalType": "uint256",
          "name": "",
          "type": "uint256"
        }
      ],
      "stateMutability": "view",
      "type": "function"
    },
    {
      "inputs": [],
      "name": "totalAllocPoint",
      "outputs": [
        {
          "internalType": "uint256",
          "name": "",
          "type": "uint256"
        }
      ],
      "stateMutability": "view",
      "type": "function"
    },
    {
      "inputs": [
        {
          "internalType": "address",
          "name": "newOwner",
          "type": "address"
        }
      ],
      "name": "transferOwnership",
      "outputs": [],
      "stateMutability": "nonpayable",
      "type": "function"
    },
    {
      "inputs": [
        {
          "internalType": "uint256",
          "name": "_pid",
          "type": "uint256"
        }
      ],
      "name": "updatePool",
      "outputs": [],
      "stateMutability": "nonpayable",
      "type": "function"
    },
    {
      "inputs": [
        {
          "internalType": "uint256",
          "name": "_rewardPerBlock",
          "type": "uint256"
        }
      ],
      "name": "updateRewardPerBlock",
      "outputs": [],
      "stateMutability": "nonpayable",
      "type": "function"
    },
    {
      "inputs": [
        {
          "internalType": "uint256",
          "name": "",
          "type": "uint256"
        },
        {
          "internalType": "address",
          "name": "",
          "type": "address"
        }
      ],
      "name": "userInfo",
      "outputs": [
        {
          "internalType": "uint256",
          "name": "amount",
          "type": "uint256"
        },
        {
          "internalType": "uint256",
          "name": "rewardDebt",
          "type": "uint256"
        }
      ],
      "stateMutability": "view",
      "type": "function"
    },
    {
      "inputs": [
        {
          "internalType": "uint256",
          "name": "_pid",
          "type": "uint256"
        },
        {
          "internalType": "uint256",
          "name": "_amount",
          "type": "uint256"
        }
      ],
      "name": "withdraw",
      "outputs": [],
      "stateMutability": "nonpayable",
      "type": "function"
    }
  ],
  "bytecode": "0x60a03461019a57601f62001e6538819003918201601f191683019291906001600160401b0384118385101761019f57816060928492604096875283398101031261019a5780516001600160a01b0380821692909183810361019a578460208301519201519233156101825760008054336001600160a01b03198216811783558851929792939091167f8be0079c531659141344cd1fd0a4f28419497f9722a3daafe3b4186f6b6457e08880a3600180558560055515610140575081156100f05760805260025560065560075551611caf9081620001b682396080518181816110e501528181611669015261199a0152f35b845162461bcd60e51b8152602060048201526024808201527f4d6173746572436865663a20696e76616c6964207265776172642070657220626044820152636c6f636b60e01b6064820152608490fd5b62461bcd60e51b815260206004820152601860248201527f4d6173746572436865663a207a65726f206164647265737300000000000000006044820152606490fd5b8551631e4fbdf760e01b815260006004820152602490fd5b600080fd5b634e487b7160e01b600052604160045260246000fdfe60406080815260048036101561001457600080fd5b600091823560e01c806301f8a9761461120c578063081e3eda146111cf578063083c6323146111925780631526fe271461110957806316cfc4c11461109a57806317caf6f11461105d5780631eaaa04514610d2b578063441a3e7014610b8757806348cd4cb114610b4a57806351eb05a614610b0f5780635312ea8e146109e5578063630b5ba1146109ab57806364482f79146108e4578063715018a6146108485780638ae39cac1461080b5780638da5cb5b146107ba5780638dbb1e3a1461079e57806393f1a40b1461072857806398969e821461053f578063a7c3566a146104f7578063c713aa9414610428578063e2bbb158146102075763f2fde38b1461011d57600080fd5b346102035760207ffffffffffffffffffffffffffffffffffffffffffffffffffffffffffffffffc3601126102035781359173ffffffffffffffffffffffffffffffffffffffff918284168094036101ff576101776113c1565b83156101d05750508254827fffffffffffffffffffffffff00000000000000000000000000000000000000008216178455167f8be0079c531659141344cd1fd0a4f28419497f9722a3daafe3b4186f6b6457e08380a380f35b908460249251917f1e4fbdf7000000000000000000000000000000000000000000000000000000008352820152fd5b8480fd5b8280fd5b5034610203576102163661136a565b9190926102216118ac565b61022e60035485106114f8565b82156103cc5761023d846112ed565b50848652816020528286203387526020528286209161025b866115a9565b825480610367575b5073ffffffffffffffffffffffffffffffffffffffff8254168451917f23b872dd0000000000000000000000000000000000000000000000000000000060208401523360248401523060448401528660648401526064835260a083019083821067ffffffffffffffff83111761033b5750926102ed64e8d4a5100093610306936001968952611812565b60036102fa88875461146e565b9182875501549061155d565b04910155519081527f90890809c654f11d6e72a28fa60149770a0d11ec6c92319d6ceb2bb0a4ea1a1560203392a36001805580f35b8960416024927f4e487b7100000000000000000000000000000000000000000000000000000000835252fd5b64e8d4a5100061037f61038b9260038601549061155d565b046001850154906114eb565b80156102635761039b8133611968565b84519081527fe2403640ba68fed3a2f88b7557551d1993f84b99bb10ff833f0cf8db0c5e048660203392a238610263565b602060649251917f08c379a0000000000000000000000000000000000000000000000000000000008352820152601e60248201527f4d6173746572436865663a20616d6f756e74206d757374206265203e203000006044820152fd5b5090346102035760207ffffffffffffffffffffffffffffffffffffffffffffffffffffffffffffffffc360112610203578035916104646113c1565b4383111561047457505060075580f35b90602060849251917f08c379a0000000000000000000000000000000000000000000000000000000008352820152602760248201527f4d6173746572436865663a20656e6420626c6f636b206d75737420626520696e60448201527f20667574757265000000000000000000000000000000000000000000000000006064820152fd5b50823461053c5760207ffffffffffffffffffffffffffffffffffffffffffffffffffffffffffffffffc36011261053c575061053560209235611b76565b9051908152f35b80fd5b50903461020357817ffffffffffffffffffffffffffffffffffffffffffffffffffffffffffffffffc36011261020357803590602461057c61139e565b9161058a60035485106114f8565b610593846112ed565b5093865260209581875285812073ffffffffffffffffffffffffffffffffffffffff8095168252875285812094876003820154958254168851958680927f70a0823100000000000000000000000000000000000000000000000000000000825230888301525afa93841561071e5782946106eb575b506002810154804311806106e2575b61063f575b888861053589600164e8d4a510006106358c845461155d565b04910154906114eb565b61067191600161065f610656610668944390611b28565b6002549061155d565b9101549061155d565b60055490611570565b9164e8d4a51000928381029381850414901517156106b65750506106356106ae61053595946106a860019564e8d4a5100095611570565b9061146e565b93943861061c565b9060116024927f4e487b7100000000000000000000000000000000000000000000000000000000835252fd5b50841515610617565b9093508781813d8311610717575b610703818361147b565b8101031261071357519238610608565b5080fd5b503d6106f9565b87513d84823e3d90fd5b50903461020357817ffffffffffffffffffffffffffffffffffffffffffffffffffffffffffffffffc3601126102035791819261076361139e565b908035835260205273ffffffffffffffffffffffffffffffffffffffff83832091168252602052206001815491015482519182526020820152f35b838234610713576020906105356107b43661136a565b90611b28565b83823461071357817ffffffffffffffffffffffffffffffffffffffffffffffffffffffffffffffffc3601126107135773ffffffffffffffffffffffffffffffffffffffff60209254169051908152f35b83823461071357817ffffffffffffffffffffffffffffffffffffffffffffffffffffffffffffffffc360112610713576020906002549051908152f35b833461053c57807ffffffffffffffffffffffffffffffffffffffffffffffffffffffffffffffffc36011261053c5761087f6113c1565b8073ffffffffffffffffffffffffffffffffffffffff81547fffffffffffffffffffffffff000000000000000000000000000000000000000081168355167f8be0079c531659141344cd1fd0a4f28419497f9722a3daafe3b4186f6b6457e08280a380f35b5090346102035760607ffffffffffffffffffffffffffffffffffffffffffffffffffffffffffffffffc3601126102035760207f7fa9647ec1cc14e3822b46d05a2b9d4e019bde8875c0088c46b6503d71bf172291359260243590610947611356565b61094f6113c1565b61095c60035487106114f8565b61099e575b6109848261097f60055460016109768a6112ed565b500154906114eb565b61146e565b600555816001610993876112ed565b50015551908152a280f35b6109a66117ea565b610961565b833461053c57807ffffffffffffffffffffffffffffffffffffffffffffffffffffffffffffffffc36011261053c576109e26117ea565b80f35b5090346102035760207ffffffffffffffffffffffffffffffffffffffffffffffffffffffffffffffffc36011261020357803591610a216118ac565b610a2e60035484106114f8565b610a37836112ed565b50838552826020528185203386526020528185208054938415610ab25750610a81918660018382889555015573ffffffffffffffffffffffffffffffffffffffff339154166118e7565b519081527fbb757047c2b5f3974fe26b7c10f732e7bce710b0952a71082702781e62ae059560203392a36001805580f35b60649060208551917f08c379a0000000000000000000000000000000000000000000000000000000008352820152601660248201527f4d6173746572436865663a206e6f2062616c616e6365000000000000000000006044820152fd5b5050346107135760207ffffffffffffffffffffffffffffffffffffffffffffffffffffffffffffffffc360112610713576109e290356115a9565b83823461071357817ffffffffffffffffffffffffffffffffffffffffffffffffffffffffffffffffc360112610713576020906006549051908152f35b50903461020357610b973661136a565b919092610ba26118ac565b610baf60035485106114f8565b610bb8846112ed565b5084865260209280845282872033885284528287209085825410610cd0575090610c24610c5c7ff279e6a1f5e320cca91135676d9cb6e44ca8a08c0b88342bcdb1144f6511b568959493610c0b896115a9565b805490600385019164e8d4a5100094859184549061155d565b0494610c3660018301968754906114eb565b80610c96575b50610c488a83546114eb565b82558980610c6d575b50505490549061155d565b049055519283523392a36001805580f35b610c8f9173ffffffffffffffffffffffffffffffffffffffff339154166118e7565b3889610c51565b610ca08133611968565b87519081527fe2403640ba68fed3a2f88b7557551d1993f84b99bb10ff833f0cf8db0c5e0486893392a238610c3c565b60649085808651927f08c379a000000000000000000000000000000000000000000000000000000000845283015260248201527f4d6173746572436865663a20696e73756666696369656e742062616c616e63656044820152fd5b5090346102035760607ffffffffffffffffffffffffffffffffffffffffffffffffffffffffffffffffc36011261020357803560249283359373ffffffffffffffffffffffffffffffffffffffff80861680960361105957610d8b611356565b610d936113c1565b8615610ffd57600354885b818110610f80575050610f73575b600654804311600014610f6d575043905b610dc98560055461146e565b6005558351916080830183811067ffffffffffffffff821117610f425785528783526020830186815285840191825260608401928a845260035468010000000000000000811015610f1757806001610e2492016003556112ed565b959095610eed575185547fffffffffffffffffffffffff000000000000000000000000000000000000000016911617845551600184015551600283015551600391820155547fffffffffffffffffffffffffffffffffffffffffffffffffffffffffffffffff810194908511610ec35750507f6c5d0ef1d0199b6de41ecbce95f59643be4d723ca363faf92d756e61e82fb13e9160209151908152a380f35b601187917f4e487b7100000000000000000000000000000000000000000000000000000000835252fd5b868c808c7f4e487b7100000000000000000000000000000000000000000000000000000000825252fd5b868c60418c7f4e487b7100000000000000000000000000000000000000000000000000000000835252fd5b848a60418a7f4e487b7100000000000000000000000000000000000000000000000000000000835252fd5b90610dbd565b610f7b6117ea565b610dac565b8884610f8b836112ed565b50541614610fa157610f9c90611412565b610d9e565b60648860178760208a51937f08c379a00000000000000000000000000000000000000000000000000000000085528401528201527f4d6173746572436865663a20706f6f6c206578697374730000000000000000006044820152fd5b60648660188560208851937f08c379a00000000000000000000000000000000000000000000000000000000085528401528201527f4d6173746572436865663a207a65726f206164647265737300000000000000006044820152fd5b8680fd5b83823461071357817ffffffffffffffffffffffffffffffffffffffffffffffffffffffffffffffffc360112610713576020906005549051908152f35b83823461071357817ffffffffffffffffffffffffffffffffffffffffffffffffffffffffffffffffc360112610713576020905173ffffffffffffffffffffffffffffffffffffffff7f0000000000000000000000000000000000000000000000000000000000000000168152f35b5090346102035760207ffffffffffffffffffffffffffffffffffffffffffffffffffffffffffffffffc36011261020357359160035483101561053c57506111526080926112ed565b509073ffffffffffffffffffffffffffffffffffffffff825416916001810154916003600283015492015492815194855260208501528301526060820152f35b83823461071357817ffffffffffffffffffffffffffffffffffffffffffffffffffffffffffffffffc360112610713576020906007549051908152f35b83823461071357817ffffffffffffffffffffffffffffffffffffffffffffffffffffffffffffffffc360112610713576020906003549051908152f35b5090346102035760207ffffffffffffffffffffffffffffffffffffffffffffffffffffffffffffffffc360112610203578035906112486113c1565b81156112905750907f842e6f2b482c6f39924c8be7b71d40631362ef78f833f0371ceb2649edc5fb109161127a6117ea565b600254908060025582519182526020820152a180f35b60649060208451917f08c379a0000000000000000000000000000000000000000000000000000000008352820152601a60248201527f4d6173746572436865663a20696e76616c6964207265776172640000000000006044820152fd5b60035481101561132757600360005260021b7fc2575a0e9e593c00f959f8c92f12db2869c3395a3b0502d05e2516446f71f85b0190600090565b7f4e487b7100000000000000000000000000000000000000000000000000000000600052603260045260246000fd5b60443590811515820361136557565b600080fd5b7ffffffffffffffffffffffffffffffffffffffffffffffffffffffffffffffffc6040910112611365576004359060243590565b6024359073ffffffffffffffffffffffffffffffffffffffff8216820361136557565b73ffffffffffffffffffffffffffffffffffffffff6000541633036113e257565b60246040517f118cdaa7000000000000000000000000000000000000000000000000000000008152336004820152fd5b7fffffffffffffffffffffffffffffffffffffffffffffffffffffffffffffffff811461143f5760010190565b7f4e487b7100000000000000000000000000000000000000000000000000000000600052601160045260246000fd5b9190820180921161143f57565b90601f7fffffffffffffffffffffffffffffffffffffffffffffffffffffffffffffffe0910116810190811067ffffffffffffffff8211176114bc57604052565b7f4e487b7100000000000000000000000000000000000000000000000000000000600052604160045260246000fd5b9190820391821161143f57565b156114ff57565b60646040517f08c379a000000000000000000000000000000000000000000000000000000000815260206004820152601b60248201527f4d6173746572436865663a20696e76616c696420706f6f6c20696400000000006044820152fd5b8181029291811591840414171561143f57565b811561157a570490565b7f4e487b7100000000000000000000000000000000000000000000000000000000600052601260045260246000fd5b6115c2600354916115bd60009382106114f8565b6112ed565b50600281019182544311156117e55760249073ffffffffffffffffffffffffffffffffffffffff90602082855416604051948580927f70a082310000000000000000000000000000000000000000000000000000000082523060048301525afa9283156117d85781936117a5575b50821561179c57611642438654611b28565b80156117925761066861165b611666926002549061155d565b60018701549061155d565b917f000000000000000000000000000000000000000000000000000000000000000016803b15610713576040517f40c10f19000000000000000000000000000000000000000000000000000000008152306004820152602481018490529082908290604490829084905af1801561178757611742575b5064e8d4a5100091828102928184041490151715611715575061170461170e92600392611570565b920191825461146e565b9055439055565b807f4e487b7100000000000000000000000000000000000000000000000000000000602492526011600452fd5b67ffffffffffffffff811161175a57604052386116dc565b6024827f4e487b710000000000000000000000000000000000000000000000000000000081526041600452fd5b6040513d84823e3d90fd5b5050505050439055565b50505050439055565b9092506020813d82116117d0575b816117c06020938361147b565b8101031261020357519138611630565b3d91506117b3565b50604051903d90823e3d90fd5b505050565b60035460005b8181106117fb575050565b8061180861180d926115a9565b611412565b6117f0565b906000602091828151910182855af1156118a0576000513d611897575073ffffffffffffffffffffffffffffffffffffffff81163b155b6118505750565b60249073ffffffffffffffffffffffffffffffffffffffff604051917f5274afe7000000000000000000000000000000000000000000000000000000008352166004820152fd5b60011415611849565b6040513d6000823e3d90fd5b6002600154146118bd576002600155565b60046040517f3ee5aeb5000000000000000000000000000000000000000000000000000000008152fd5b6040517fa9059cbb00000000000000000000000000000000000000000000000000000000602082015273ffffffffffffffffffffffffffffffffffffffff92909216602483015260448083019390935291815261194e9161194960648361147b565b611812565b565b90816020910312611365575180151581036113655790565b604080517f70a082310000000000000000000000000000000000000000000000000000000081523060048201526020937f000000000000000000000000000000000000000000000000000000000000000073ffffffffffffffffffffffffffffffffffffffff16908583602481855afa928315611b1d579086939291600093611ae9575b5082811115611a92575083517fa9059cbb00000000000000000000000000000000000000000000000000000000815273ffffffffffffffffffffffffffffffffffffffff90951660048601526024850191909152839081600081604481015b03925af1908115611a885750611a5f575050565b81611a7e92903d10611a81575b611a76818361147b565b810190611950565b50565b503d611a6c565b513d6000823e3d90fd5b84517fa9059cbb00000000000000000000000000000000000000000000000000000000815273ffffffffffffffffffffffffffffffffffffffff909616600487015260248601528491508160008160448101611a4b565b9192909382813d8311611b16575b611b01818361147b565b8101031261053c5750908592915191386119ec565b503d611af7565b84513d6000823e3d90fd5b81811015611b6f576007549182151580611b66575b611b4e57611b4b92506114eb565b90565b50818110611b5d575050600090565b611b4b916114eb565b50828111611b3d565b5050600090565b611b896024916115bd60035482106114f8565b50602073ffffffffffffffffffffffffffffffffffffffff825416604051938480927f70a082310000000000000000000000000000000000000000000000000000000082523060048301525afa9182156118a057600092611c46575b5081158015611c3c575b611b6f5760025490622014809182810292818404149015171561143f57611c1e9160016106689201549061155d565b906127109182810292818404149015171561143f57611b4b91611570565b5060055415611bef565b90916020823d8211611c71575b81611c606020938361147b565b8101031261053c5750519038611be5565b3d9150611c5356fea2646970667358221220c28b710ef3a81c6d344c30109644fc0c0fcd2a79482c1a80a71a4a1659cd501364736f6c63430008140033",
  "linkReferences": {},
  "deployedLinkReferences": {}
}